{
  "abi": [
    {
      "inputs": [
        {
          "internalType": "address",
          "name": "_paymentToken",
          "type": "address"
        },
        {
          "internalType": "address payable",
          "name": "_seller",
          "type": "address"
        },
        {
          "internalType": "bytes",
          "name": "_encryptedFile",
          "type": "bytes"
        },
        {
          "internalType": "bytes",
          "name": "_encryptedAddress",
          "type": "bytes"
        },
        {
          "internalType": "bytes",
          "name": "_encryptedValue",
          "type": "bytes"
        }
      ],
      "stateMutability": "nonpayable",
      "type": "constructor"
    },
    {
      "anonymous": false,
      "inputs": [
        {
          "indexed": false,
          "internalType": "bytes",
          "name": "encryptedAddress",
          "type": "bytes"
        },
        {
          "indexed": false,
          "internalType": "bytes",
          "name": "encryptedValue",
          "type": "bytes"
        }
      ],
      "name": "AddressAndValueEncrypted",
      "type": "event"
    },
    {
      "anonymous": false,
      "inputs": [],
      "name": "BuyerConfirmed",
      "type": "event"
    },
    {
      "anonymous": false,
      "inputs": [
        {
          "indexed": false,
          "internalType": "bytes",
          "name": "file",
          "type": "bytes"
        }
      ],
      "name": "FileEncrypted",
      "type": "event"
    },
    {
      "anonymous": false,
      "inputs": [
        {
          "indexed": false,
          "internalType": "address",
          "name": "buyer",
          "type": "address"
        },
        {
          "indexed": false,
          "internalType": "uint256",
          "name": "value",
          "type": "uint256"
        }
      ],
      "name": "PaymentReceived",
      "type": "event"
    },
    {
      "anonymous": false,
      "inputs": [
        {
          "indexed": false,
          "internalType": "address",
          "name": "buyer",
          "type": "address"
        },
        {
          "indexed": false,
          "internalType": "uint256",
          "name": "value",
          "type": "uint256"
        }
      ],
      "name": "PaymentRefunded",
      "type": "event"
    },
    {
      "anonymous": false,
      "inputs": [],
      "name": "SellerConfirmed",
      "type": "event"
    },
    {
      "inputs": [],
      "name": "confirmFile",
      "outputs": [],
      "stateMutability": "nonpayable",
      "type": "function"
    },
    {
      "inputs": [],
      "name": "confirmPayment",
      "outputs": [],
      "stateMutability": "nonpayable",
      "type": "function"
    },
    {
      "inputs": [
        {
          "internalType": "address",
          "name": "buyer",
          "type": "address"
        }
      ],
      "name": "decryptValue",
      "outputs": [
        {
          "internalType": "uint256",
          "name": "",
          "type": "uint256"
        }
      ],
      "stateMutability": "view",
      "type": "function"
    },
    {
      "inputs": [],
      "name": "encryptedAddress",
      "outputs": [
        {
          "internalType": "bytes",
          "name": "",
          "type": "bytes"
        }
      ],
      "stateMutability": "view",
      "type": "function"
    },
    {
      "inputs": [],
      "name": "encryptedFile",
      "outputs": [
        {
          "internalType": "bytes",
          "name": "",
          "type": "bytes"
        }
      ],
      "stateMutability": "view",
      "type": "function"
    },
    {
      "inputs": [],
      "name": "encryptedValue",
      "outputs": [
        {
          "internalType": "bytes",
          "name": "",
          "type": "bytes"
        }
      ],
      "stateMutability": "view",
      "type": "function"
    },
    {
      "inputs": [],
      "name": "isBuyerConfirmed",
      "outputs": [
        {
          "internalType": "bool",
          "name": "",
          "type": "bool"
        }
      ],
      "stateMutability": "view",
      "type": "function"
    },
    {
      "inputs": [],
      "name": "isSellerConfirmed",
      "outputs": [
        {
          "internalType": "bool",
          "name": "",
          "type": "bool"
        }
      ],
      "stateMutability": "view",
      "type": "function"
    },
    {
      "inputs": [],
      "name": "paymentToken",
      "outputs": [
        {
          "internalType": "contract IERC20",
          "name": "",
          "type": "address"
        }
      ],
      "stateMutability": "view",
      "type": "function"
    },
    {
      "inputs": [],
      "name": "refundPayment",
      "outputs": [],
      "stateMutability": "nonpayable",
      "type": "function"
    },
    {
      "inputs": [],
      "name": "seller",
      "outputs": [
        {
          "internalType": "address payable",
          "name": "",
          "type": "address"
        }
      ],
      "stateMutability": "view",
      "type": "function"
    }
  ],
  "bytecode": {
    "object": "0x60806040523480156200001157600080fd5b506040516200101238038062001012833981810160405260a08110156200003757600080fd5b815160208301516040808501805191519395929483019291846401000000008211156200006357600080fd5b9083019060208201858111156200007957600080fd5b82516401000000008111828201881017156200009457600080fd5b82525081516020918201929091019080838360005b83811015620000c3578181015183820152602001620000a9565b50505050905090810190601f168015620000f15780820380516001836020036101000a031916815260200191505b50604052602001805160405193929190846401000000008211156200011557600080fd5b9083019060208201858111156200012b57600080fd5b82516401000000008111828201881017156200014657600080fd5b82525081516020918201929091019080838360005b83811015620001755781810151838201526020016200015b565b50505050905090810190601f168015620001a35780820380516001836020036101000a031916815260200191505b5060405260200180516040519392919084640100000000821115620001c757600080fd5b908301906020820185811115620001dd57600080fd5b8251640100000000811182820188101715620001f857600080fd5b82525081516020918201929091019080838360005b83811015620002275781810151838201526020016200020d565b50505050905090810190601f168015620002555780820380516001836020036101000a031916815260200191505b506040525050600080546001600160a01b038089166001600160a01b0319928316179092556001805492881692909116919091179055508251620002a190600290602086019062000485565b508151620002b790600390602085019062000485565b508051620002cd90600490602084019062000485565b506005805461ffff1916905560408051602080825285518183015285517ffae34ae875d6d4b6aab4fc65ab867a6876df78d51a56094939a7e15735ca9e10938793928392918301919085019080838360005b83811015620003395781810151838201526020016200031f565b50505050905090810190601f168015620003675780820380516001836020036101000a031916815260200191505b509250505060405180910390a17fedf350ea76b53964c022eba43425705690c1bfce559959362733bd3ca7ff80a48282604051808060200180602001838103835285818151815260200191508051906020019080838360005b83811015620003da578181015183820152602001620003c0565b50505050905090810190601f168015620004085780820380516001836020036101000a031916815260200191505b50838103825284518152845160209182019186019080838360005b838110156200043d57818101518382015260200162000423565b50505050905090810190601f1680156200046b5780820380516001836020036101000a031916815260200191505b5094505050505060405180910390a1505050505062000531565b828054600181600116156101000203166002900490600052602060002090601f016020900481019282620004bd576000855562000508565b82601f10620004d857805160ff191683800117855562000508565b8280016001018555821562000508579182015b8281111562000508578251825591602001919060010190620004eb565b50620005169291506200051a565b5090565b5b808211156200051657600081556001016200051b565b610ad180620005416000396000f3fe608060405234801561001057600080fd5b50600436106100a95760003560e01c806386e560be1161007157806386e560be14610169578063b65412b514610171578063c6f7459514610179578063d9e87103146101b1578063dc1e3008146101cd578063f3f0f9a4146101d5576100a9565b806308551a53146100ae5780631d64921e146100d25780633013ce291461014f57806362ef1f81146101575780637bbd549214610161575b600080fd5b6100b66101dd565b604080516001600160a01b039092168252519081900360200190f35b6100da6101ec565b6040805160208082528351818301528351919283929083019185019080838360005b838110156101145781810151838201526020016100fc565b50505050905090810190601f1680156101415780820380516001836020036101000a031916815260200191505b509250505060405180910390f35b6100b6610277565b61015f610286565b005b6100da6103b0565b6100da61040b565b61015f610466565b61019f6004803603602081101561018f57600080fd5b50356001600160a01b0316610571565b60408051918252519081900360200190f35b6101b9610577565b604080519115158252519081900360200190f35b61015f610585565b6101b9610675565b6001546001600160a01b031681565b6002805460408051602060018416156101000260001901909316849004601f8101849004840282018401909252818152929183018282801561026f5780601f106102445761010080835404028352916020019161026f565b820191906000526020600020905b81548152906001019060200180831161025257829003601f168201915b505050505081565b6000546001600160a01b031681565b60055460ff16156102c85760405162461bcd60e51b8152600401808060200182810382526023815260200180610a4f6023913960400191505060405180910390fd5b600554610100900460ff161561030f5760405162461bcd60e51b8152600401808060200182810382526024815260200180610a2b6024913960400191505060405180910390fd5b600061031a33610571565b60015460005491925061033c916001600160a01b03908116913391168461067e565b6005805460ff19166001179055604080513381526020810183905281517f6ef95f06320e7a25a04a175ca677b7052bdd97131872c2192525a629f51be770929181900390910190a16040517f3f764a6cc0b5d89a2a5eb8450f86811df6b621b104d37c66b81373fcc1c7904890600090a150565b6003805460408051602060026001851615610100026000190190941693909304601f8101849004840282018401909252818152929183018282801561026f5780601f106102445761010080835404028352916020019161026f565b6004805460408051602060026001851615610100026000190190941693909304601f8101849004840282018401909252818152929183018282801561026f5780601f106102445761010080835404028352916020019161026f565b60055460ff166104bd576040805162461bcd60e51b815260206004820152601f60248201527f427579657220686173206e6f7420636f6e6669726d6564207061796d656e7400604482015290519081900360640190fd5b600554610100900460ff16156105045760405162461bcd60e51b8152600401808060200182810382526024815260200180610a2b6024913960400191505060405180910390fd5b600061050f33610571565b600054909150610529906001600160a01b031633836106de565b6005805460ff19169055604080513381526020810183905281517f33b7138d1fec46cc4854a4c7e59e345e18fefb073179104dc6bfe1a5492f41d0929181900390910190a150565b50606490565b600554610100900460ff1681565b6001546001600160a01b031633146105e4576040805162461bcd60e51b815260206004820152601c60248201527f4f6e6c792073656c6c65722063616e20636f6e6669726d2066696c6500000000604482015290519081900360640190fd5b60055460ff1661063b576040805162461bcd60e51b815260206004820152601f60248201527f427579657220686173206e6f7420636f6e6669726d6564207061796d656e7400604482015290519081900360640190fd5b6005805461ff0019166101001790556040517ff042c20ebe10535e52366d5aa5fa146a5b361c406422dc999eedfb7c7993a65590600090a1565b60055460ff1681565b604080516001600160a01b0380861660248301528416604482015260648082018490528251808303909101815260849091019091526020810180516001600160e01b03166323b872dd60e01b1790526106d8908590610735565b50505050565b604080516001600160a01b038416602482015260448082018490528251808303909101815260649091019091526020810180516001600160e01b031663a9059cbb60e01b179052610730908490610735565b505050565b600061078a826040518060400160405280602081526020017f5361666545524332303a206c6f772d6c6576656c2063616c6c206661696c6564815250856001600160a01b03166107e69092919063ffffffff16565b805190915015610730578080602001905160208110156107a957600080fd5b50516107305760405162461bcd60e51b815260040180806020018281038252602a815260200180610a72602a913960400191505060405180910390fd5b60606107f584846000856107ff565b90505b9392505050565b6060824710156108405760405162461bcd60e51b8152600401808060200182810382526026815260200180610a056026913960400191505060405180910390fd5b6108498561095a565b61089a576040805162461bcd60e51b815260206004820152601d60248201527f416464726573733a2063616c6c20746f206e6f6e2d636f6e7472616374000000604482015290519081900360640190fd5b600080866001600160a01b031685876040518082805190602001908083835b602083106108d85780518252601f1990920191602091820191016108b9565b6001836020036101000a03801982511681845116808217855250505050505090500191505060006040518083038185875af1925050503d806000811461093a576040519150601f19603f3d011682016040523d82523d6000602084013e61093f565b606091505b509150915061094f828286610960565b979650505050505050565b3b151590565b6060831561096f5750816107f8565b82511561097f5782518084602001fd5b8160405162461bcd60e51b81526004018080602001828103825283818151815260200191508051906020019080838360005b838110156109c95781810151838201526020016109b1565b50505050905090810190601f1680156109f65780820380516001836020036101000a031916815260200191505b509250505060405180910390fdfe416464726573733a20696e73756666696369656e742062616c616e636520666f722063616c6c53656c6c65722068617320616c726561647920636f6e6669726d6564207061796d656e7442757965722068617320616c726561647920636f6e6669726d6564207061796d656e745361666545524332303a204552433230206f7065726174696f6e20646964206e6f742073756363656564a2646970667358221220ce2b2ed0fade91fa927c76d192229bbefb04b06a839e0a0ddd64eac23d53f67664736f6c63430007060033",
    "linkReferences": {}
  },
  "methodIdentifiers": {
    "confirmFile()": "dc1e3008",
    "confirmPayment()": "62ef1f81",
    "decryptValue(address)": "c6f74595",
    "encryptedAddress()": "7bbd5492",
    "encryptedFile()": "1d64921e",
    "encryptedValue()": "86e560be",
    "isBuyerConfirmed()": "f3f0f9a4",
    "isSellerConfirmed()": "d9e87103",
    "paymentToken()": "3013ce29",
    "refundPayment()": "b65412b5",
    "seller()": "08551a53"
  },
  "id": 4
}